{"abi":[{"type":"constructor","inputs":[],"stateMutability":"nonpayable"},{"type":"function","name":"deleteUser","inputs":[],"outputs":[],"stateMutability":"nonpayable"},{"type":"function","name":"getDetails","inputs":[{"name":"user","type":"address","internalType":"address"}],"outputs":[{"name":"","type":"string","internalType":"string"},{"name":"","type":"uint256","internalType":"uint256"}],"stateMutability":"view"},{"type":"function","name":"getOwner","inputs":[],"outputs":[{"name":"","type":"address","internalType":"address"}],"stateMutability":"view"},{"type":"function","name":"store","inputs":[{"name":"_name","type":"string","internalType":"string"},{"name":"_age","type":"uint256","internalType":"uint256"}],"outputs":[],"stateMutability":"nonpayable"},{"type":"function","name":"updateDetail","inputs":[{"name":"_name","type":"string","internalType":"string"},{"name":"_age","type":"uint256","internalType":"uint256"}],"outputs":[],"stateMutability":"nonpayable"}],"bytecode":{"object":"0x60a0604052348015600e575f80fd5b503373ffffffffffffffffffffffffffffffffffffffff1660808173ffffffffffffffffffffffffffffffffffffffff16815250506080516109cc61005b5f395f6102b201526109cc5ff3fe608060405234801561000f575f80fd5b5060043610610055575f3560e01c8063026ff05e1461005957806330289c61146100635780637408a1d714610094578063893d20e8146100b0578063915bee5b146100ce575b5f80fd5b6100616100ea565b005b61007d60048036038101906100789190610414565b610140565b60405161008b9291906104c7565b60405180910390f35b6100ae60048036038101906100a9919061064b565b610239565b005b6100b86102af565b6040516100c591906106b4565b60405180910390f35b6100e860048036038101906100e3919061064b565b6102d6565b005b5f803373ffffffffffffffffffffffffffffffffffffffff1673ffffffffffffffffffffffffffffffffffffffff1681526020019081526020015f205f8082015f6101359190610351565b600182015f90555050565b60605f805f808573ffffffffffffffffffffffffffffffffffffffff1673ffffffffffffffffffffffffffffffffffffffff1681526020019081526020015f206040518060400160405290815f8201805461019a906106fa565b80601f01602080910402602001604051908101604052809291908181526020018280546101c6906106fa565b80156102115780601f106101e857610100808354040283529160200191610211565b820191905f5260205f20905b8154815290600101906020018083116101f457829003601f168201915b505050505081526020016001820154815250509050805f015181602001519250925050915091565b6040518060400160405280838152602001828152505f803373ffffffffffffffffffffffffffffffffffffffff1673ffffffffffffffffffffffffffffffffffffffff1681526020019081526020015f205f820151815f01908161029d91906108c7565b50602082015181600101559050505050565b5f7f0000000000000000000000000000000000000000000000000000000000000000905090565b5f6040518060400160405280848152602001838152509050805f803373ffffffffffffffffffffffffffffffffffffffff1673ffffffffffffffffffffffffffffffffffffffff1681526020019081526020015f205f820151815f01908161033e91906108c7565b5060208201518160010155905050505050565b50805461035d906106fa565b5f825580601f1061036e575061038b565b601f0160209004905f5260205f209081019061038a919061038e565b5b50565b5b808211156103a5575f815f90555060010161038f565b5090565b5f604051905090565b5f80fd5b5f80fd5b5f73ffffffffffffffffffffffffffffffffffffffff82169050919050565b5f6103e3826103ba565b9050919050565b6103f3816103d9565b81146103fd575f80fd5b50565b5f8135905061040e816103ea565b92915050565b5f60208284031215610429576104286103b2565b5b5f61043684828501610400565b91505092915050565b5f81519050919050565b5f82825260208201905092915050565b8281835e5f83830152505050565b5f601f19601f8301169050919050565b5f6104818261043f565b61048b8185610449565b935061049b818560208601610459565b6104a481610467565b840191505092915050565b5f819050919050565b6104c1816104af565b82525050565b5f6040820190508181035f8301526104df8185610477565b90506104ee60208301846104b8565b9392505050565b5f80fd5b5f80fd5b7f4e487b71000000000000000000000000000000000000000000000000000000005f52604160045260245ffd5b61053382610467565b810181811067ffffffffffffffff82111715610552576105516104fd565b5b80604052505050565b5f6105646103a9565b9050610570828261052a565b919050565b5f67ffffffffffffffff82111561058f5761058e6104fd565b5b61059882610467565b9050602081019050919050565b828183375f83830152505050565b5f6105c56105c084610575565b61055b565b9050828152602081018484840111156105e1576105e06104f9565b5b6105ec8482856105a5565b509392505050565b5f82601f830112610608576106076104f5565b5b81356106188482602086016105b3565b91505092915050565b61062a816104af565b8114610634575f80fd5b50565b5f8135905061064581610621565b92915050565b5f8060408385031215610661576106606103b2565b5b5f83013567ffffffffffffffff81111561067e5761067d6103b6565b5b61068a858286016105f4565b925050602061069b85828601610637565b9150509250929050565b6106ae816103d9565b82525050565b5f6020820190506106c75f8301846106a5565b92915050565b7f4e487b71000000000000000000000000000000000000000000000000000000005f52602260045260245ffd5b5f600282049050600182168061071157607f821691505b602082108103610724576107236106cd565b5b50919050565b5f819050815f5260205f209050919050565b5f6020601f8301049050919050565b5f82821b905092915050565b5f600883026107867fffffffffffffffffffffffffffffffffffffffffffffffffffffffffffffffff8261074b565b610790868361074b565b95508019841693508086168417925050509392505050565b5f819050919050565b5f6107cb6107c66107c1846104af565b6107a8565b6104af565b9050919050565b5f819050919050565b6107e4836107b1565b6107f86107f0826107d2565b848454610757565b825550505050565b5f90565b61080c610800565b6108178184846107db565b505050565b5b8181101561083a5761082f5f82610804565b60018101905061081d565b5050565b601f82111561087f576108508161072a565b6108598461073c565b81016020851015610868578190505b61087c6108748561073c565b83018261081c565b50505b505050565b5f82821c905092915050565b5f61089f5f1984600802610884565b1980831691505092915050565b5f6108b78383610890565b9150826002028217905092915050565b6108d08261043f565b67ffffffffffffffff8111156108e9576108e86104fd565b5b6108f382546106fa565b6108fe82828561083e565b5f60209050601f83116001811461092f575f841561091d578287015190505b61092785826108ac565b86555061098e565b601f19841661093d8661072a565b5f5b828110156109645784890151825560018201915060208501945060208101905061093f565b86831015610981578489015161097d601f891682610890565b8355505b6001600288020188555050505b50505050505056fea26469706673582212200a37976b6a479e3fc3408b8c61020eb43c9f0fa80e1ddea7f00c9cc9293799e564736f6c63430008190033","linkReferences":{}},"methodIdentifiers":{"deleteUser()":"026ff05e","getDetails(address)":"30289c61","getOwner()":"893d20e8","store(string,uint256)":"7408a1d7","updateDetail(string,uint256)":"915bee5b"},"id":0}