{"abi":[{"type":"constructor","inputs":[],"stateMutability":"nonpayable"},{"type":"function","name":"deleteQuote","inputs":[],"outputs":[],"stateMutability":"nonpayable"},{"type":"function","name":"getOwner","inputs":[],"outputs":[{"name":"","type":"address","internalType":"address"}],"stateMutability":"view"},{"type":"function","name":"myQuote","inputs":[],"outputs":[{"name":"author","type":"string","internalType":"string"},{"name":"description","type":"string","internalType":"string"},{"name":"timeStamp","type":"uint256","internalType":"uint256"}],"stateMutability":"view"},{"type":"function","name":"quoteCount","inputs":[],"outputs":[{"name":"","type":"uint256","internalType":"uint256"}],"stateMutability":"view"},{"type":"function","name":"retrieveTimeStamp","inputs":[{"name":"_user","type":"address","internalType":"address"}],"outputs":[{"name":"blockTimeStamp","type":"uint256","internalType":"uint256"}],"stateMutability":"view"},{"type":"function","name":"storeQuote","inputs":[{"name":"_author","type":"string","internalType":"string"},{"name":"_description","type":"string","internalType":"string"}],"outputs":[],"stateMutability":"nonpayable"},{"type":"function","name":"updateQuote","inputs":[{"name":"_newAuthor","type":"string","internalType":"string"},{"name":"_newDescription","type":"string","internalType":"string"}],"outputs":[],"stateMutability":"nonpayable"},{"type":"function","name":"viewQuotes","inputs":[{"name":"_user","type":"address","internalType":"address"}],"outputs":[{"name":"author","type":"string","internalType":"string"},{"name":"description","type":"string","internalType":"string"},{"name":"timestamp","type":"uint256","internalType":"uint256"}],"stateMutability":"view"}],"bytecode":{"object":"0x60a0604052348015600e575f80fd5b503373ffffffffffffffffffffffffffffffffffffffff1660808173ffffffffffffffffffffffffffffffffffffffff1681525050608051610fc261005b5f395f6103a70152610fc25ff3fe608060405234801561000f575f80fd5b5060043610610086575f3560e01c8063965e32fb11610059578063965e32fb14610112578063a8d3706b14610144578063eb8f10ff1461014e578063efc13e591461016e57610086565b80634d1d10611461008a5780636560be39146100a8578063657ec8a0146100d8578063893d20e8146100f4575b5f80fd5b61009261018a565b60405161009f9190610923565b60405180910390f35b6100c260048036038101906100bd91906109a7565b61018f565b6040516100cf9190610923565b60405180910390f35b6100f260048036038101906100ed9190610b0e565b610311565b005b6100fc6103a4565b6040516101099190610b93565b60405180910390f35b61012c600480360381019061012791906109a7565b6103cb565b60405161013b93929190610c0c565b60405180910390f35b61014c61055f565b005b6101566105c5565b60405161016593929190610c0c565b60405180910390f35b61018860048036038101906101839190610b0e565b610757565b005b5f5481565b5f8060015f8473ffffffffffffffffffffffffffffffffffffffff1673ffffffffffffffffffffffffffffffffffffffff1681526020019081526020015f206040518060600160405290815f820180546101e890610c7c565b80601f016020809104026020016040519081016040528092919081815260200182805461021490610c7c565b801561025f5780601f106102365761010080835404028352916020019161025f565b820191905f5260205f20905b81548152906001019060200180831161024257829003601f168201915b5050505050815260200160018201805461027890610c7c565b80601f01602080910402602001604051908101604052809291908181526020018280546102a490610c7c565b80156102ef5780601f106102c6576101008083540402835291602001916102ef565b820191905f5260205f20905b8154815290600101906020018083116102d257829003601f168201915b5050505050815260200160028201548152505090508060400151915050919050565b60405180606001604052808381526020018281526020014281525060015f3373ffffffffffffffffffffffffffffffffffffffff1673ffffffffffffffffffffffffffffffffffffffff1681526020019081526020015f205f820151815f01908161037c9190610e49565b5060208201518160010190816103929190610e49565b50604082015181600201559050505050565b5f7f0000000000000000000000000000000000000000000000000000000000000000905090565b6060805f8060015f8673ffffffffffffffffffffffffffffffffffffffff1673ffffffffffffffffffffffffffffffffffffffff1681526020019081526020015f206040518060600160405290815f8201805461042790610c7c565b80601f016020809104026020016040519081016040528092919081815260200182805461045390610c7c565b801561049e5780601f106104755761010080835404028352916020019161049e565b820191905f5260205f20905b81548152906001019060200180831161048157829003601f168201915b505050505081526020016001820180546104b790610c7c565b80601f01602080910402602001604051908101604052809291908181526020018280546104e390610c7c565b801561052e5780601f106105055761010080835404028352916020019161052e565b820191905f5260205f20905b81548152906001019060200180831161051157829003601f168201915b505050505081526020016002820154815250509050805f015181602001518260400151935093509350509193909250565b60015f3373ffffffffffffffffffffffffffffffffffffffff1673ffffffffffffffffffffffffffffffffffffffff1681526020019081526020015f205f8082015f6105ab91906108b3565b600182015f6105ba91906108b3565b600282015f90555050565b6060805f8060015f3373ffffffffffffffffffffffffffffffffffffffff1673ffffffffffffffffffffffffffffffffffffffff1681526020019081526020015f206040518060600160405290815f8201805461062190610c7c565b80601f016020809104026020016040519081016040528092919081815260200182805461064d90610c7c565b80156106985780601f1061066f57610100808354040283529160200191610698565b820191905f5260205f20905b81548152906001019060200180831161067b57829003601f168201915b505050505081526020016001820180546106b190610c7c565b80601f01602080910402602001604051908101604052809291908181526020018280546106dd90610c7c565b80156107285780601f106106ff57610100808354040283529160200191610728565b820191905f5260205f20905b81548152906001019060200180831161070b57829003601f168201915b505050505081526020016002820154815250509050805f01518160200151826040015193509350935050909192565b5f60015f3373ffffffffffffffffffffffffffffffffffffffff1673ffffffffffffffffffffffffffffffffffffffff1681526020019081526020015f205f0180546107a290610c7c565b90500361082057600233908060018154018082558091505060019003905f5260205f20015f9091909190916101000a81548173ffffffffffffffffffffffffffffffffffffffff021916908373ffffffffffffffffffffffffffffffffffffffff1602179055505f8081548092919061081a90610f45565b91905055505b60405180606001604052808381526020018281526020014281525060015f3373ffffffffffffffffffffffffffffffffffffffff1673ffffffffffffffffffffffffffffffffffffffff1681526020019081526020015f205f820151815f01908161088b9190610e49565b5060208201518160010190816108a19190610e49565b50604082015181600201559050505050565b5080546108bf90610c7c565b5f825580601f106108d057506108ed565b601f0160209004905f5260205f20908101906108ec91906108f0565b5b50565b5b80821115610907575f815f9055506001016108f1565b5090565b5f819050919050565b61091d8161090b565b82525050565b5f6020820190506109365f830184610914565b92915050565b5f604051905090565b5f80fd5b5f80fd5b5f73ffffffffffffffffffffffffffffffffffffffff82169050919050565b5f6109768261094d565b9050919050565b6109868161096c565b8114610990575f80fd5b50565b5f813590506109a18161097d565b92915050565b5f602082840312156109bc576109bb610945565b5b5f6109c984828501610993565b91505092915050565b5f80fd5b5f80fd5b5f601f19601f8301169050919050565b7f4e487b71000000000000000000000000000000000000000000000000000000005f52604160045260245ffd5b610a20826109da565b810181811067ffffffffffffffff82111715610a3f57610a3e6109ea565b5b80604052505050565b5f610a5161093c565b9050610a5d8282610a17565b919050565b5f67ffffffffffffffff821115610a7c57610a7b6109ea565b5b610a85826109da565b9050602081019050919050565b828183375f83830152505050565b5f610ab2610aad84610a62565b610a48565b905082815260208101848484011115610ace57610acd6109d6565b5b610ad9848285610a92565b509392505050565b5f82601f830112610af557610af46109d2565b5b8135610b05848260208601610aa0565b91505092915050565b5f8060408385031215610b2457610b23610945565b5b5f83013567ffffffffffffffff811115610b4157610b40610949565b5b610b4d85828601610ae1565b925050602083013567ffffffffffffffff811115610b6e57610b6d610949565b5b610b7a85828601610ae1565b9150509250929050565b610b8d8161096c565b82525050565b5f602082019050610ba65f830184610b84565b92915050565b5f81519050919050565b5f82825260208201905092915050565b8281835e5f83830152505050565b5f610bde82610bac565b610be88185610bb6565b9350610bf8818560208601610bc6565b610c01816109da565b840191505092915050565b5f6060820190508181035f830152610c248186610bd4565b90508181036020830152610c388185610bd4565b9050610c476040830184610914565b949350505050565b7f4e487b71000000000000000000000000000000000000000000000000000000005f52602260045260245ffd5b5f6002820490506001821680610c9357607f821691505b602082108103610ca657610ca5610c4f565b5b50919050565b5f819050815f5260205f209050919050565b5f6020601f8301049050919050565b5f82821b905092915050565b5f60088302610d087fffffffffffffffffffffffffffffffffffffffffffffffffffffffffffffffff82610ccd565b610d128683610ccd565b95508019841693508086168417925050509392505050565b5f819050919050565b5f610d4d610d48610d438461090b565b610d2a565b61090b565b9050919050565b5f819050919050565b610d6683610d33565b610d7a610d7282610d54565b848454610cd9565b825550505050565b5f90565b610d8e610d82565b610d99818484610d5d565b505050565b5b81811015610dbc57610db15f82610d86565b600181019050610d9f565b5050565b601f821115610e0157610dd281610cac565b610ddb84610cbe565b81016020851015610dea578190505b610dfe610df685610cbe565b830182610d9e565b50505b505050565b5f82821c905092915050565b5f610e215f1984600802610e06565b1980831691505092915050565b5f610e398383610e12565b9150826002028217905092915050565b610e5282610bac565b67ffffffffffffffff811115610e6b57610e6a6109ea565b5b610e758254610c7c565b610e80828285610dc0565b5f60209050601f831160018114610eb1575f8415610e9f578287015190505b610ea98582610e2e565b865550610f10565b601f198416610ebf86610cac565b5f5b82811015610ee657848901518255600182019150602085019450602081019050610ec1565b86831015610f035784890151610eff601f891682610e12565b8355505b6001600288020188555050505b505050505050565b7f4e487b71000000000000000000000000000000000000000000000000000000005f52601160045260245ffd5b5f610f4f8261090b565b91507fffffffffffffffffffffffffffffffffffffffffffffffffffffffffffffffff8203610f8157610f80610f18565b5b60018201905091905056fea2646970667358221220bbf6497b25d95d74f5a011c0fab6c1e6ee0d3c730660600c4c5607f311fbc14c64736f6c63430008190033","linkReferences":{}},"methodIdentifiers":{"deleteQuote()":"a8d3706b","getOwner()":"893d20e8","myQuote()":"eb8f10ff","quoteCount()":"4d1d1061","retrieveTimeStamp(address)":"6560be39","storeQuote(string,string)":"efc13e59","updateQuote(string,string)":"657ec8a0","viewQuotes(address)":"965e32fb"},"id":0}